S01800005452414E534D495353494F4E574946492E7372656333
S11300000C9483000C94A0000C94A0000C94A00009
S11300100C94A0000C94A0000C94A0000C94A000DC
S11300200C94A0000C94A0000C94A0000C94A000CC
S11300300C94A0000C94A0000C94A0000C94A000BC
S11300400C94A0000C94A0000C94A0000C94A000AC
S11300500C94E1030C94B0030C94A0000C94A00045
S11300600C94A0000C94A0000C94A0000C94A0008C
S11300700C943A040C9409040C94A000F401F401C7
S1130080F401F401F4010A020A020C02F601F60179
S1130090F601F601F801F801F801F8010A020A0272
S11300A0FA01FA01FA01FA01FA010A020A02FC0150
S11300B0FC01FC01FC010A020A020A02FE01FE0123
S11300C0FE01FE01FE010A020A020002020202020D
S11300D00202020204020402040204020A020A02E4
S11300E0060206020602060206020A020A020802C2
S11300F00802080208026F027302770289029B0257
S1130100A702B002B60211241FBECFEFD8E0DEBFB3
S1130110CDBF11E0A0E0B1E0ECEAFAE002C0059046
S11301200D92A631B107D9F722E0A6E1B1E001C0F2
S11301301D92A438B207E1F70E940E030C945405F3
S11301400C94000081B18E7F81B981B18D7F81B91A
S113015081B1877F81B9ECE7F0E080818F7780837C
S1130160808180648083808180628083EAE7F0E01C
S11301708081876080838081806880830895ECE734
S1130180F0E09081987F8770892B8083EAE7F0E024
S1130190808180648083808186FB222720F930E07F
S11301A006C080917A0086FB222720F930E0232BB9
S11301B0C1F7809179000895FC01718360834283C3
S11301C01382148281E08583168217820895FC01CC
S11301D0868181111FC0A081B1818381A80FB11DC7
S11301E06C9315822381422F50E0828190E0019725
S11301F04817590711F4138202C02F5F23836A3012
S113020019F487818F5F878393818481981302C057
S113021081E086830895FC018581811120C0A0813D
S1130220B1819481492F50E0A40FB51F8C9116829F
S1130230228130E0215031094217530711F414820E
S113024002C09F5F94838A3019F4978191509783F9
S113025024819381291304C091E09583089580E05B
S11302600895FC0185810895FC018681089588B96B
S113027085E88A95F1F7000082B18F7782B985E825
S11302808A95F1F7000082B1806882B9089582B13D
S11302908F7D82B981E00E9437018FE99FE0019749
S11302A0F1F700C0000082B1806282B90895813004
S11302B011F482E001C080E092B19F7D92B9846024
S11302C00E94370182B1806282B90895813011F0B1
S11302D080E001C084E0613009F48260413009F4B7
S11302E0816092B19F7D92B988600E94370182B18A
S11302F0806282B90895CF93DF93C62FD42F98E3F9
S113030098B992B19F7D92B992B19F7B92B99FEFB8
S113031097B991B1906E91B9EFE1FEE43197F1F79D
S113032000C0000092B19F7792B9EFE0F7E23197F5
S1130330F1F700C0000092B1906892B9EFE0F7E2E3
S11303403197F1F700C0000092B19F7792B9E7ECC2
S1130350F0E03197F1F700C0000092B1906892B9D3
S1130360E7ECF0E03197F1F700C0000092B19F771D
S113037092B9EFEFF5E03197F1F700C0000092B1C8
S1130380906892B90E9457014D2F6C2F81E00E9412
S113039066010E944701DF91CF910895613011F009
S11303A090E001C090E4890F92B19F7D92B980687A
S11303B00E94370182B1806282B90895E82F82B128
S11303C0806282B9E03220F08E2F0E9437010895B6
S11303D08E2F90E0FC01E05CF109ED33F105D0F4DF
S11303E0E25CFF4F0C944E0581E417C085E415C010
S11303F089E413C08FE411C085E50FC081E60DC008
S113040083E60BC085E609C089E607C08FE605C010
S113041085E703C085EA01C083E40E94370108959B
S113042040E061E081E00E947B011092170110928C
S1130430160108950E944701109217010895CF9361
S1130440DF93803168F4623058F4D62FC82F0E94AD
S1130450CE018C2F90E1D99F800D11248093170138
S1130460DF91CF9108958F70089582958F700895CC
S11304701F93CF93DF93182FC09117018C2F0E94E5
S11304803502D82F113049F4CF3118F010921701EA
S11304900DC0CF5FC093170109C0C11104C08FE123
S11304A08093170103C0C150C093170180911701B5
S11304B00E94350291E0D81301C090E0892FDF91AA
S11304C0CF911F910895CF93DF9390E088309105E9
S11304D008F051C0FC01E558FF4F0C944E0581E033
S11304E00E94380248C080E00E94380244C0C09193
S11304F017018C2F0E943502811107C0C05FC09381
S1130500170181E08093160136C0C051C0931701D2
S113051032C0C09117018C2F0E943502882339F014
S1130520CF70C093170181E08093160124C0C05F8F
S1130530C093170120C0809117010E94350290E0FA
S113054001968295807F81508093170114C0809119
S113055017010E9435028295807F809317010BC09A
S1130560809117018F708093170105C08091170146
S1130570805F80931701C09117018C2F0E94350270
S1130580D82F8C2F0E9433026D2F0E94CE01DF9151
S1130590CF910895CF93DF93C82F803268F48A30C7
S11305A019F08D3029F024C083E00E94630220C03A
S11305B085E00E9463021CC080911601813021F401
S11305C00E944701109216018C2F0E94DE0181E0E7
S11305D00E943802813061F4C09117018C2F0E946F
S11305E03502D82F8C2F0E9433026D2F0E94CE012A
S11305F0DF91CF9108950F931F93CF938C01C0E0A7
S113060003C00E94CA02CF5FF801EC0FF11D808184
S11306108111F7CFCF911F910F910895CF93DF935D
S1130620CDB7DEB761970FB6F894DEBF0FBECDBF6E
S11306300E94A20080E00E94810481B18B7F81B975
S113064082B1846082B98AB18F7D8AB98BB18062AC
S11306508BB98AB18F7B8AB98BB180648BB98AB12B
S11306608F778AB98BB180688BB978940E94100215
S11306700E941A0281E00E94BF00B82E80E00E940E
S1130680BF00C82E83E00E94BF00D82EE9B0EE1C44
S1130690EE24EE1CF9B0F6FAFF24F0F809B105FBDC
S11306A0002700F910B112FB112710F98BE589839B
S11306B06B2DCE0102960E940E056C2DCE0105967F
S11306C00E940E056D2DCE0108960E940E0580E352
S11306D08E0D8B8780E38F0D8C87005D0D87105DF9
S11306E01E878DE58F878AE0888B198A60E080E019
S11306F00E941F02CE0101960E94FB02BE016F5FA1
S11307007F4F80E00E94BB042FEF80E792E02150EE
S113071080409040E1F700C00000ACCF882319F07E
S1130720813039F00895E1ECF0E0808180628083CB
S11307300895E9ECF0E08081806280830895882345
S113074019F0813039F00895E1ECF0E080818F7D7B
S113075080830895E9ECF0E080818F7D80830895A3
S11307601F920F920FB60F9211242F933F934F9322
S11307705F936F937F938F939F93AF93BF93EF9305
S1130780FF9388E291E00E940B018093C60088E207
S113079091E00E943101813019F480E00E949F03AE
S11307A0FF91EF91BF91AF919F918F917F916F9145
S11307B05F914F913F912F910F900FBE0F901F901B
S11307C018951F920F920FB60F9211242F933F93F7
S11307D04F935F936F937F938F939F93AF93BF9345
S11307E0EF93FF936091C60080E391E00E94E700DD
S11307F0FF91EF91BF91AF919F918F917F916F91F5
S11308005F914F913F912F910F900FBE0F901F90CA
S113081018951F920F920FB60F9211242F933F93A6
S11308204F935F936F937F938F939F93AF93BF93F4
S1130830EF93FF9388E191E00E940B018093CE0037
S113084088E191E00E943101882319F081E00E943F
S11308509F03FF91EF91BF91AF919F918F917F91F2
S11308606F915F914F913F912F910F900FBE0F9019
S11308701F9018951F920F920FB60F9211242F9369
S11308803F934F935F936F937F938F939F93AF9314
S1130890BF93EF93FF936091CE0080E291E00E94BA
S11308A0E700FF91EF91BF91AF919F918F917F915D
S11308B06F915F914F913F912F910F900FBE0F90C9
S11308C01F901895882319F0813071F00895E62F50
S11308D0F0E0EE0FFF1FEC5FFE4F8081918190935B
S11308E0C5008093C4000895E62FF0E0EE0FFF1FCB
S11308F0EC5FFE4F808191819093CD008093CC007A
S11309000895CF93C82F882319F08130C1F02DC0EA
S113091086E08093C20088E98093C1001092C000F1
S113092046E96EEE71E080E391E00E94DC0046E966
S113093068E571E088E291E00E94DC0016C086E080
S11309408093CA0088E98093C9001092C80040E1EE
S113095068E471E080E291E00E94DC0040E168E339
S113096071E088E191E00E94DC0062E08C2F0E943B
S11309706204CF910895CF92DF92EF92FF920F938A
S11309801F93CF93DF93C82E8B01D12C32C0CC2D73
S1130990D0E0FE01EE0FFF1FE050FF4F80819181F8
S11309A00E943401813099F38C2D0E949F030CC066
S11309B0FE01EE0FFF1FE050FF4FD7016C918081C5
S11309C091810E94E700D3947801ED0CF11CF701AA
S11309D08081882359F0FE01EE0FFF1FE050FF4F86
S11309E0808191810E943401882311F38C2D0E940F
S11309F08E03F801ED0DF11D80818111C8CFDF91C7
S1130A00CF911F910F91FF90EF90DF90CF900895B9
S1130A108A3010F4805D089580E00895CF92DF92CB
S1130A20EF92FF920F931F93CF93DF937C01162FC6
S1130A30C4E6D0E017C0812F6C2F0E944205082F16
S1130A406701CD0ED11C0E940805F6018083C09F6A
S1130A5010191124DF5F8DECC89FC12D1124C69598
S1130A60C695C695C111E7CFF701ED0FF11D1082B0
S1130A708D2FDF91CF911F910F91FF90EF90DF9019
S1130A80CF900895991B79E004C0991F961708F038
S1130A90961B881F7A95C9F780950895EE0FFF1F5E
S10F0AA00590F491E02D0994F894FFCF28
S1130AAC28011801CF006700330019000C0008005E
S1090ABC0300010001002B
S9030000FC
