:100000000C94C4000C94E1000C94E1000C94E10009
:100010000C94E1000C94E1000C94E1000C94E100DC
:100020000C94E1000C94E1000C94E1000C94E100CC
:100030000C94E1000C94E1000C94E1000C94E100BC
:100040000C94E1000C94E1000C94E1000C94E100AC
:100050000C94FF070C94CE070C94E1000C94E10083
:100060000C94E1000C94E1000C94E1000C94E1008C
:100070000C9458080C9427080C94E1008502850222
:100080008502850285029B029B029D0287028702F0
:100090008702870289028902890289029B029B02E8
:1000A0008B028B028B028B028B029B029B028D02C6
:1000B0008D028D028D029B029B029B028F028F029A
:1000C0008F028F028F029B029B0291029302930286
:1000D0009302930295029502950295029B029B0260
:1000E000970297029702970297029B029B0299023E
:1000F0009902990299020003040308031A032C03CE
:1001000038034103470307634236B79BD8A71A3920
:10011000685618AEBAAB558C1D3CB7CC5763BD6D55
:10012000EDFD753EF6177231BF000000803F0800FC
:100130000000BE922449123EABAAAA2ABECDCCCC66
:100140004C3E00000080BEABAAAAAA3E0000000000
:10015000BF000000803F0000000000084178D3BBD2
:100160004387D1133D190E3CC3BD4282AD2B3E687F
:10017000EC8276BED98FE1A93E4C80EFFFBE01C470
:10018000FF7F3F000000000011241FBECFEFD8E02A
:10019000DEBFCDBF11E0A0E0B1E0E6ECFAE102C0C5
:1001A00005900D92AC32B107D9F722E0ACE2B1E094
:1001B00001C01D92AA39B207E1F70E941A050C94FA
:1001C000610D0C94000084B1816084B984B18260B7
:1001D00084B984B1846084B984B1886084B984B1FD
:1001E000806184B984B5806A84BD84B58F7A84BD0A
:1001F00084B5816084BD84B58D7F84BD86B516BC11
:1002000085B5816085BD85B5897F85BD089587BD2C
:10021000089588BD08959C018AB180618AB98AB128
:1002200080628AB9E0E8F0E0808180688083808124
:100230008F7B808390819062908390819F7E90835A
:10024000A1E8B0E09C9190619C939C9198609C93F4
:1002500090819260908390819E7F90831092850020
:100260001092840030938700209386008C918B7FBE
:100270008C938C9182608C938C918E7F8C9308955B
:10028000909389008093880008958AB180648AB928
:100290008AB180688AB9E0EBF0E08081806A80836F
:1002A00080818F7A808380818160808380818D7F4F
:1002B0008083E2EBF0E080811082E1EBF0E080816E
:1002C000816080838081897F808308958093B300DB
:1002D00008958093B4000895FC0171836083428384
:1002E0001382148281E08583168217820895FC01AF
:1002F000868181111FC0A081B1818381A80FB11DAA
:100300006C9315822381422F50E0828190E0019707
:100310004817590711F4138202C02F5F23836A30F4
:1003200019F487818F5F878393818481981302C03A
:1003300081E086830895FC018581811120C0A08120
:10034000B1819481492F50E0A40FB51F8C91168282
:10035000228130E0215031094217530711F41482F1
:1003600002C09F5F94838A3019F4978191509783DC
:1003700024819381291304C091E09583089580E03E
:100380000895FC0185810895FC01878190E008951E
:1003900088B985E88A95F1F7000082B18F7782B934
:1003A00085E88A95F1F7000082B1806882B90895E6
:1003B00082B18F7D82B981E00E94C8018FE99FE000
:1003C0000197F1F700C0000082B1806282B9089500
:1003D000813011F482E001C080E092B19F7D92B93A
:1003E00084600E94C80182B1806282B90895813020
:1003F00011F080E001C084E0613009F48260413096
:1004000009F4816092B19F7D92B988600E94C80111
:1004100082B1806282B90895CF93DF93C62FD42F23
:1004200098E398B992B19F7D92B992B19F7B92B9AE
:100430009FEF97B991B1906E91B9EFE1FEE43197DA
:10044000F1F700C0000092B19F7792B9EFE0F7E2B8
:100450003197F1F700C0000092B1906892B9EFE0D7
:10046000F7E23197F1F700C0000092B19F7792B99F
:10047000E7ECF0E03197F1F700C0000092B190682E
:1004800092B9E7ECF0E03197F1F700C0000092B1CB
:100490009F7792B9EFEFF5E03197F1F700C00000D8
:1004A00092B1906892B90E94E8014D2F6C2F81E0C3
:1004B0000E94F7010E94D801DF91CF910895613029
:1004C00011F090E001C090E4890F92B19F7D92B944
:1004D00080680E94C80182B1806282B90895E82FC5
:1004E00082B1806282B9E03220F08E2F0E94C80172
:1004F00008958E2F90E0FC01E05CF109ED33F105E9
:10050000D0F4E25CFF4F0C945B0D81E417C085E4EE
:1005100015C089E413C08FE411C085E50FC081E6E2
:100520000DC083E60BC085E609C089E607C08FE6EB
:1005300005C085E703C085EA01C083E40E94C801C5
:10054000089540E061E081E00E940C0210922D01CC
:1005500010922C0108950E94D80110922D01089547
:10056000CF93DF93803168F4623058F4D62FC82FD0
:100570000E945F028C2F90E1D99F800D11248093FF
:100580002D01DF91CF9108958F70089582958F701E
:1005900008951F93CF93DF93182FC0912D018C2FB7
:1005A0000E94C602D82F113049F4CF3118F01092B2
:1005B0002D010DC0CF5FC0932D0109C0C11104C032
:1005C0008FE180932D0103C0C150C0932D01809114
:1005D0002D010E94C60291E0D81301C090E0892F3E
:1005E000DF91CF911F910895CF93DF9390E08830F2
:1005F000910508F051C0FC01E558FF4F0C945B0DCC
:1006000081E00E94C90248C080E00E94C90244C043
:10061000C0912D018C2F0E94C602811107C0C05FBE
:10062000C0932D0181E080932C0136C0C051C0934E
:100630002D0132C0C0912D018C2F0E94C60288234B
:1006400039F0CF70C0932D0181E080932C0124C03C
:10065000C05FC0932D0120C080912D010E94C60271
:1006600090E001968295807F815080932D0114C087
:1006700080912D010E94C6028295807F80932D017A
:100680000BC080912D018F7080932D0105C080914A
:100690002D01805F80932D01C0912D018C2F0E9430
:1006A000C602D82F8C2F0E94C4026D2F0E945F02B9
:1006B000DF91CF910895CF93DF93C82F803268F4F4
:1006C0008A3019F08D3029F024C083E00E94F402B2
:1006D00020C085E00E94F4021CC080912C01813072
:1006E00021F40E94D80110922C018C2F0E946F02DD
:1006F00081E00E94C902813061F4C0912D018C2FEC
:100700000E94C602D82F8C2F0E94C4026D2F0E9417
:100710005F02DF91CF9108950F931F93CF938C01C8
:10072000C0E003C00E945B03CF5FF801EC0FF11D36
:1007300080818111F7CFCF911F910F9108954F9232
:100740005F926F927F928F929F92AF92BF92CF9261
:10075000DF92EF92FF920F931F93CF93DF938C0161
:10076000EB01072E000C880B990B0E94A80A6B0165
:100770007C01BE016B577109072E000C880B990B89
:100780000E94A80A9B01AC01C701B6010E94050A9C
:100790002B013C01B8016B577109072E000C880B27
:1007A000990B0E94A80A9B01AC01C301B2010E94EF
:1007B0005D0B2B013C01CC59DF4FBE01DD0F880BD7
:1007C000990B0E94A80A20E030E040E450E40E9427
:1007D000CA0B9B01AC01C701B6010E94050A6B015F
:1007E0007C0120E030E0A901C301B2010E94580B56
:1007F0001816B4F420E030E048EC52E4C301B20132
:100800000E94940920E030E040E450E40E94CA0BCA
:100810009B01AC01C701B6010E945D0B4B015C015D
:1008200020E030E0A901C301B2010E94000A882340
:10083000B4F420E030E048EC52E4C301B2010E947D
:10084000930920E030E040E450E40E94CA0B9B0191
:10085000AC01C701B6010E945D0B4B015C01C501F3
:10086000B401DF91CF911F910F91FF90EF90DF9036
:10087000CF90BF90AF909F908F907F906F905F9040
:100880004F9008954F925F926F927F928F929F92B6
:10089000AF92BF92CF92DF92EF92FF920F931F938E
:1008A000CF93DF938C01EB01072E000C880B990B83
:1008B0000E94A80A4B015C01BE016B577109072E0B
:1008C000000C880B990B0E94A80A9B01AC01C50182
:1008D000B4010E94050A6B017C01B8016B577109D4
:1008E000072E000C880B990B0E94A80A9B01AC01F3
:1008F000C701B6010E945D0B6B017C01CC59DF4F33
:10090000BE01DD0F880B990B0E94A80A20E030E0A1
:1009100040E450E40E94CA0B9B01AC01C501B40144
:100920000E94050A4B015C0120E030E0A901C701EB
:10093000B6010E94580B1816B4F420E030E048ECE1
:1009400052E4C701B6010E94940920E030E040E47F
:1009500050E40E94CA0B9B01AC01C501B4010E9486
:100960005D0B2B013C0120E030E0A901C701B6017D
:100970000E94000A8823B4F420E030E048EC52E4FE
:10098000C701B6010E94930920E030E040E450E442
:100990000E94CA0B9B01AC01C501B4010E945D0B12
:1009A0002B013C01055611090633110518F4412CA1
:1009B000512C3201C301B201DF91CF911F910F91F0
:1009C000FF90EF90DF90CF90BF90AF909F908F906F
:1009D0007F906F905F904F900895CF92DF92EF924B
:1009E000FF92CF93DF93EC01660F771F072E000C69
:1009F000880B990B0E94A80A20E030E04FE753E4EF
:100A00000E94050A6B017C01BE0162587109072E24
:100A1000000C880B990B0E94A80A9B01AC01C7012E
:100A2000B6010E945D0BDF91CF91FF90EF90DF90B8
:100A3000CF900895CF93DF93CDB7DEB7C954D109D6
:100A40000FB6F894DEBF0FBECDBF0E94E30080E278
:100A50009EE40E940B010E94450180E00E949F08D5
:100A600078940E94A10281E090E026969FAF8EAF1D
:100A7000269780E00E94FB08892BD9F341E1BE0153
:100A80006F5F7F4F80E00E9406098A810E945409AF
:100A900004E6089F600111248B810E94540990E0B4
:100AA0007C01EE0CFF1C880F991F880F991F880F7F
:100AB000991F8E0D9F1D7601E80EF91E8C810E94F4
:100AC00054092701480E511C8D810E945409089F2A
:100AD000600111248E810E94540990E07C01EE0C8B
:100AE000FF1C880F991F880F991F880F991F8E0D63
:100AF0009F1D7601E80EF91E8F810E94540937016F
:100B0000680E711C88850E945409089F8001112479
:100B100089850E94540990E01C01220C331C880F27
:100B2000991F880F991F880F991F820D931D180117
:100B3000280E391E8A850E945409280E311C8B8587
:100B4000FC840D851E85803341F40E94AB0281E058
:100B500090E026969FAF8EAF269790E3F91208C0DB
:100B60000E94AB0282E090E026969FAF8EAF269760
:100B7000003341F40E94AB0283E090E026969FAFE1
:100B80008EAF269726968EAD9FAD2697019709F0DA
:100B900049C160E080E00E94B00280E091E00E94E4
:100BA0008C036FEF70E0C2010E949F0324966CAF2C
:100BB0007DAF8EAF9FAF249769E170E0C3010E94C3
:100BC000ED042A966CAF7DAF8EAF9FAF2A9720E0E1
:100BD00030E0A90124966CAD7DAD8EAD9FAD24971C
:100BE0000E94580B18163CF52A962CAD3DAD4EAD23
:100BF0005FAD2A9724966CAD7DAD8EAD9FAD2497E9
:100C00000E9493096B017C012A962CAD3DAD4EAD3F
:100C10005FAD2A9724966CAD7DAD8EAD9FAD2497C8
:100C20000E9494094B015C0185B1826085B985B150
:100C30008B7F85B905C0812C912C5401750164010D
:100C400020E030E0A90124966CAD7DAD8EAD9FAD66
:100C500024970E94000A882334F52A962CAD3DADD6
:100C60004EAD5FAD2A9724966CAD7DAD8EAD9FAD38
:100C700024970E9494096B017C012A962CAD3DAD0E
:100C80004EAD5FAD2A9724966CAD7DAD8EAD9FAD18
:100C900024970E9493094B015C0185B18D7F85B932
:100CA00085B1846085B920E030E04FE753E4C701A7
:100CB000B6010E94580B181644F40F2EC12CD12CEB
:100CC000FFE7EF2EF3E4FF2EF02D20E030E04FE7BA
:100CD00053E4C501B4010E94580B181644F40F2EBA
:100CE000812C912CFFE7AF2EF3E4BF2EF02D20E0F6
:100CF00030E04FE753ECC701B6010E94000A882399
:100D000044F40F2EC12CD12CFFE7EF2EF3ECFF2E75
:100D1000F02D20E030E04FE753ECC501B4010E9414
:100D2000000A882374F1C2018F5691098297A0F5B9
:100D300064E670E0C3010E94ED046B017C0120E0D9
:100D400030E0A9010E94580B18164CF485B182605E
:100D500085B985B1846085B9460157011DC020E081
:100D600030E0A901C701B6010E94000A882394F46B
:100D700085B18D7F85B985B18B7F85B946015701D6
:100D80000BC00F2E812C912CFFE7AF2EF3ECBF2E62
:100D9000F02D02C0460157016FEF70E0C1010E94C3
:100DA00042042B013C0120E030E0A9010E94580BD5
:100DB00018161CF485B1816085B920E030E0A901E6
:100DC000C301B2010E94000A88231CF485B18E7F02
:100DD00085B920E030E04FE753E4C301B2010E943F
:100DE000580B181644F40F2E412C512CFFE76F2E90
:100DF000F3E47F2EF02D20E030E04FE753ECC30109
:100E0000B2010E94000A882344F40F2E412C512C79
:100E1000FFE76F2EF3EC7F2EF02D103369F00CED11
:100E200015E00CC00CED15E0412C512C32015301A2
:100E300042017301620102C000ED17E020E030E0E2
:100E4000A901C501B4010E94000A882324F4B7FA5D
:100E5000B094B7F8B09420E030E0A901C701B60122
:100E60000E94000A882324F4F7FAF094F7F8F0942B
:100E7000C501B4010E94770AB62E862F0E94070191
:100E8000C701B6010E94770AE62E862F0E9409014B
:100E900020E030E0A901C301B2010E94000A8823CA
:100EA00024F477FA709477F87094C301B2010E9429
:100EB000770AF62E862F0E94690184E60E94660159
:100EC000C8010E9440016B2DCE018C960E945F09E3
:100ED0006E2DCE01C6960E945F096F2DCE018296BF
:100EE0000E945F0961E080E00E94B0028EE091E024
:100EF0000E948C0361E083E00E94B002CE018C96D8
:100F00000E948C0361E086E00E94B00282E191E0E1
:100F10000E948C0361E089E00E94B002CE01C69677
:100F20000E948C0361E08CE00E94B002CE018296A8
:100F30000E948C039ECD882319F0813039F00895EA
:100F4000E1ECF0E080818F7D80830895E9ECF0E0B2
:100F500080818F7D80830895882319F0813039F056
:100F60000895E1ECF0E08081806880830895E9ECE9
:100F7000F0E08081806880830895882319F08130B3
:100F800039F00895E1ECF0E080818F778083089557
:100F9000E9ECF0E080818F77808308951F920F92B3
:100FA0000FB60F9211242F933F934F935F936F933C
:100FB0007F938F939F93AF93BF93EF93FF938EE3B2
:100FC00091E00E949B018093C6008EE391E00E9415
:100FD000C101813019F480E00E949B07FF91EF91DD
:100FE000BF91AF919F918F917F916F915F914F9141
:100FF0003F912F910F900FBE0F901F9018951F9249
:101000000F920FB60F9211242F933F934F935F933C
:101010006F937F938F939F93AF93BF93EF93FF93C0
:101020006091C60086E491E00E947701FF91EF9104
:10103000BF91AF919F918F917F916F915F914F91F0
:101040003F912F910F900FBE0F901F9018951F92F8
:101050000F920FB60F9211242F933F934F935F93EC
:101060006F937F938F939F93AF93BF93EF93FF9370
:101070008EE291E00E949B018093CE008EE291E08F
:101080000E94C101882319F081E00E949B07FF9113
:10109000EF91BF91AF919F918F917F916F915F91F0
:1010A0004F913F912F910F900FBE0F901F90189569
:1010B0001F920F920FB60F9211242F933F934F93CD
:1010C0005F936F937F938F939F93AF93BF93EF93B0
:1010D000FF936091CE0086E391E00E947701FF913B
:1010E000EF91BF91AF919F918F917F916F915F91A0
:1010F0004F913F912F910F900FBE0F901F90189519
:10110000882319F0813071F00895E62FF0E0EE0F9A
:10111000FF1FE65EFE4F808191819093C500809312
:10112000C4000895E62FF0E0EE0FFF1FE65EFE4FCD
:10113000808191819093CD008093CC000895CF93CE
:10114000C82F882319F08130C1F02DC086E080932C
:10115000C20088E98093C1001092C00046E964E0B3
:1011600072E086E491E00E946C0146E96EE671E06F
:101170008EE391E00E946C0116C086E08093CA0065
:1011800088E98093C9001092C80040E16EE571E0E3
:1011900086E391E00E946C0140E16EE471E08EE232
:1011A00091E00E946C0162E08C2F0E948008CF9138
:1011B0000895CF93DF93C82F0E94BD07EC2FF0E076
:1011C000EE0FFF1FEA5EFE4F808191810E949B011E
:1011D000D82F8C2F0E94AC078D2FDF91CF910895CF
:1011E000E82FF0E0EE0FFF1FEA5EFE4F8081918155
:1011F0000E94C1010895E82FF0E0EE0FFF1FEA5EA4
:10120000FE4F808191810E94C4010895CF92DF92A8
:10121000EF92FF920F931F93CF93DF93082FEB0171
:10122000F42E1FB7F89421E080E090E004C0802FF6
:101230000E94FB0820E02111FACF1FBF18161906E3
:1012400024F510E0802F0E94F00881110CC0EE24DC
:10125000E394E10E6E01C10ED11C802F0E94D908CB
:10126000F60180831E2DE12FF0E03197EC0FFD1F7A
:1012700080818A3059F0412F50E02F2D30E02150ED
:10128000310942175307F4F201C010E0812F90E0BA
:10129000C80FD91F1882DF91CF911F910F91FF9036
:1012A000EF90DF90CF90089580538A3008F080E06F
:1012B00008958A3010F4805D089580E00895CF92FB
:1012C000DF92EF92FF920F931F93CF93DF937C01F6
:1012D000162FC4E6D0E017C0812F6C2F0E944F0D4F
:1012E000082F6701CD0ED11C0E945909F601808399
:1012F000C09F10191124DF5F8DECC89FC12D1124F0
:10130000C695C695C695C111E7CFF701ED0FF11D42
:1013100010828D2FDF91CF911F910F91FF90EF9051
:10132000DF90CF9008955058BB27AA270E94AB09A1
:101330000C941E0B0E94100B38F00E94170B20F02B
:1013400039F49F3F19F426F40C940D0B0EF4E0953C
:10135000E7FB0C94070BE92F0E942F0B58F3BA17E9
:10136000620773078407950720F079F4A6F50C94BB
:10137000510B0EF4E0950B2EBA2FA02D0B01B901E5
:1013800090010C01CA01A0011124FF27591B99F0FB
:10139000593F50F4503E68F11A16F040A22F232F07
:1013A000342F4427585FF3CF469537952795A79557
:1013B000F0405395C9F77EF41F16BA0B620B730BFE
:1013C000840BBAF09150A1F0FF0FBB1F661F771F6F
:1013D000881FC2F70EC0BA0F621F731F841F48F424
:1013E000879577956795B795F7959E3F08F0B0CFAD
:1013F0009395880F08F09927EE0F97958795089594
:101400000E94E30A08F481E008950E94190A0C94EE
:101410001E0B0E94170B58F00E94100B40F029F48D
:101420005F3F29F00C94070B51110C94520B0C9454
:101430000D0B0E942F0B68F39923B1F3552391F301
:10144000951B550BBB27AA2762177307840738F033
:101450009F5F5F4F220F331F441FAA1FA9F335D090
:101460000E2E3AF0E0E832D091505040E695001C44
:10147000CAF72BD0FE2F29D0660F771F881FBB1FFE
:10148000261737074807AB07B0E809F0BB0B802DDC
:10149000BF01FF2793585F4F3AF09E3F510578F008
:1014A0000C94070B0C94520B5F3FE4F3983ED4F37B
:1014B000869577956795B795F7959F5FC9F7880FDC
:1014C000911D9695879597F90895E1E0660F771F2E
:1014D000881FBB1F621773078407BA0720F0621BBF
:1014E000730B840BBA0BEE1F88F7E09508950E94EA
:1014F000370B88F09F5798F0B92F9927B751B0F064
:10150000E1F0660F771F881F991F1AF0BA95C9F787
:1015100014C0B13091F00E94510BB1E008950C94C9
:10152000510B672F782F8827B85F39F0B93FCCF37C
:10153000869577956795B395D9F73EF49095809504
:10154000709561957F4F8F4F9F4F0895E89409C024
:1015500097FB3EF490958095709561957F4F8F4FE6
:101560009F4F9923A9F0F92F96E9BB279395F695FC
:10157000879577956795B795F111F8CFFAF4BB0F7A
:1015800011F460FF1BC06F5F7F4F8F4F9F4F16C0DE
:10159000882311F096E911C0772321F09EE8872F68
:1015A000762F05C0662371F096E8862F70E060E024
:1015B0002AF09A95660F771F881FDAF7880F96959D
:1015C000879597F90895990F0008550FAA0BE0E841
:1015D000FEEF16161706E807F907C0F012161306F5
:1015E000E407F50798F0621B730B840B950B39F435
:1015F0000A2661F0232B242B252B21F408950A269B
:1016000009F4A140A6958FEF811D811D089597F9DA
:101610009F6780E870E060E008959FEF80EC089598
:1016200000240A94161617061806090608950024C1
:101630000A9412161306140605060895092E03943B
:10164000000C11F4882352F0BB0F40F4BF2B11F4AF
:1016500060FF04C06F5F7F4F8F4F9F4F089557FD0E
:101660009058440F551F59F05F3F71F04795880F10
:1016700097FB991F61F09F3F79F0879508951216A7
:1016800013061406551FF2CF4695F1DF08C0161653
:1016900017061806991FF1CF869571056105089404
:1016A0000895E894BB2766277727CB0197F908951B
:1016B0000E94E30A08F48FEF08950E94700B0C94C7
:1016C0001E0B0E94100B38F00E94170B20F0952380
:1016D00011F00C94070B0C940D0B11240C94520B6D
:1016E0000E942F0B70F3959FC1F3950F50E0551F8B
:1016F000629FF001729FBB27F00DB11D639FAA2767
:10170000F00DB11DAA1F649F6627B00DA11D661FB5
:10171000829F2227B00DA11D621F739FB00DA11DD6
:10172000621F839FA00D611D221F749F3327A00D90
:10173000611D231F849F600D211D822F762F6A2F2C
:1017400011249F5750409AF0F1F088234AF0EE0F91
:10175000FF1FBB1F661F771F881F91505040A9F7BE
:101760009E3F510580F00C94070B0C94520B5F3F89
:10177000E4F3983ED4F3869577956795B795F795FA
:10178000E7959F5FC1F7FE2B880F911D9695879572
:1017900097F90895FA01EE0FFF1F309621053105E4
:1017A000A1F16115710561F48038BFE39B0749F130
:1017B00068949038810561F08038BFEF9B0741F055
:1017C00099234AF5FF3FE1053105210519F1E89418
:1017D0000894E795D901AA2329F4AB2FBE2FF85F0F
:1017E000D0F310C0FF5F70F4A695E0F7F73950F022
:1017F00019F0FF3A38F49F779F930DD00F9007FCB4
:101800009058089546F00C940D0B60E070E080E86D
:101810009FE308954FE79F775F934F933F932F93F5
:101820000E94C50C2F913F914F915F910E945D0BDB
:101830000C94220C29F416F00C94070B0C94510B09
:101840000C940D0B0E94370BA8F39638A0F707F8FD
:101850000F92E8942BE33AEA48EB5FE70E94730BA0
:101860000F920F920F924DB75EB70F920E940D0D1F
:10187000E6E0F1E00E94540C4F915F91EF91FF91EF
:10188000E595EE1FFF1F49F0FE57E0684427EE0F75
:10189000441FFA95E1F74195550B0E94870C0F9074
:1018A00007FE0C947B0C0895DF93CF931F930F9347
:1018B000FF92EF92DF927B018C01689406C0DA2ED2
:1018C000EF010E94700BFE01E894A59125913591DE
:1018D00045915591A6F3EF010E94AB09FE019701D6
:1018E000A801DA9469F7DF90EF90FF900F911F91B4
:1018F000CF91DF9108959B01AC0160E070E080E83A
:101900009FE30C94050A0C94070B0C94410D0E9464
:10191000370BD8F39923C9F3940F511DA3F39150BA
:10192000504094F059F0882332F0660F771F881FDB
:1019300091505040C1F79E3F51052CF7880F911DE3
:101940009695879597F908955F3FACF0983E9CF087
:10195000BB27869577956795B79508F4B160939501
:10196000C1F7BB0F58F711F460FFE8CF6F5F7F4FEF
:101970008F4F9F4FE3CF0C94520B16F00C94410DF8
:101980000C940D0B68940C94070B0E94370BA8F372
:101990009923C1F3AEF3DF93CF931F930F93FF927D
:1019A000C92FDD2788232AF02197660F771F881F0C
:1019B000DAF720E030E040E85FEB9FE3883920F081
:1019C000803E38F021968F770E949409EEE2F1E094
:1019D00004C00E949409EBE5F1E00E94540C8B01D5
:1019E000BE01EC01FB2E6F5771097595771F880BAF
:1019F000990B0E94A80A28E132E741E35FE30E94C5
:101A0000700BAF2D9801AE01FF900F911F91CF91F8
:101A1000DF910E94AB090C941E0BFA01DC01AA0FA6
:101A2000BB1F9B01AC01BF5728F422273327442753
:101A3000507820C0B75190F4AB2F002446953795CD
:101A40002795011CA395D2F3002071F0220F331FBC
:101A5000441FB395DAF30ED00C94930961307105ED
:101A6000A0E88A07B94630F49B01AC0166277727C6
:101A700088279078309621F02083318342835383E6
:101A800008959F3F31F0915020F4879577956795A1
:101A9000B795880F911D9695879597F90895991B8D
:101AA00079E004C0991F961708F0961B881F7A9555
:101AB000C9F780950895EE0FFF1F0590F491E02D72
:061AC0000994F894FFCF29
:101AC6004D6F6465206E6F726D616C202000524709
:101AD6003A0052443A0046013601CF00670033000F
:0C1AE60019000C000800030001000100C2
:00000001FF
